{
  "contractName": "Roulette",
  "abi": [
    {
      "constant": true,
      "inputs": [],
      "name": "name",
      "outputs": [
        {
          "name": "",
          "type": "string"
        }
      ],
      "payable": false,
      "stateMutability": "view",
      "type": "function"
    },
    {
      "constant": false,
      "inputs": [
        {
          "name": "_spender",
          "type": "address"
        },
        {
          "name": "_value",
          "type": "uint256"
        }
      ],
      "name": "approve",
      "outputs": [
        {
          "name": "success",
          "type": "bool"
        }
      ],
      "payable": false,
      "stateMutability": "nonpayable",
      "type": "function"
    },
    {
      "constant": true,
      "inputs": [],
      "name": "totalSupply",
      "outputs": [
        {
          "name": "",
          "type": "uint256"
        }
      ],
      "payable": false,
      "stateMutability": "view",
      "type": "function"
    },
    {
      "constant": true,
      "inputs": [],
      "name": "fundsWallet",
      "outputs": [
        {
          "name": "",
          "type": "address"
        }
      ],
      "payable": false,
      "stateMutability": "view",
      "type": "function"
    },
    {
      "constant": true,
      "inputs": [
        {
          "name": "",
          "type": "uint256"
        }
      ],
      "name": "bets",
      "outputs": [
        {
          "name": "player",
          "type": "address"
        },
        {
          "name": "betType",
          "type": "uint8"
        },
        {
          "name": "number",
          "type": "uint8"
        },
        {
          "name": "betAmount",
          "type": "uint256"
        }
      ],
      "payable": false,
      "stateMutability": "view",
      "type": "function"
    },
    {
      "constant": false,
      "inputs": [
        {
          "name": "_from",
          "type": "address"
        },
        {
          "name": "_to",
          "type": "address"
        },
        {
          "name": "_value",
          "type": "uint256"
        }
      ],
      "name": "transferFrom",
      "outputs": [
        {
          "name": "success",
          "type": "bool"
        }
      ],
      "payable": false,
      "stateMutability": "nonpayable",
      "type": "function"
    },
    {
      "constant": true,
      "inputs": [
        {
          "name": "",
          "type": "address"
        }
      ],
      "name": "winner",
      "outputs": [
        {
          "name": "",
          "type": "uint256"
        }
      ],
      "payable": false,
      "stateMutability": "view",
      "type": "function"
    },
    {
      "constant": false,
      "inputs": [
        {
          "name": "_amount",
          "type": "uint256"
        }
      ],
      "name": "increase",
      "outputs": [],
      "payable": false,
      "stateMutability": "nonpayable",
      "type": "function"
    },
    {
      "constant": true,
      "inputs": [],
      "name": "decimals",
      "outputs": [
        {
          "name": "",
          "type": "uint8"
        }
      ],
      "payable": false,
      "stateMutability": "view",
      "type": "function"
    },
    {
      "constant": true,
      "inputs": [],
      "name": "initialSupply",
      "outputs": [
        {
          "name": "",
          "type": "uint256"
        }
      ],
      "payable": false,
      "stateMutability": "view",
      "type": "function"
    },
    {
      "constant": false,
      "inputs": [
        {
          "name": "_value",
          "type": "uint256"
        }
      ],
      "name": "burn",
      "outputs": [
        {
          "name": "success",
          "type": "bool"
        }
      ],
      "payable": false,
      "stateMutability": "nonpayable",
      "type": "function"
    },
    {
      "constant": true,
      "inputs": [
        {
          "name": "",
          "type": "address"
        }
      ],
      "name": "balanceOf",
      "outputs": [
        {
          "name": "",
          "type": "uint256"
        }
      ],
      "payable": false,
      "stateMutability": "view",
      "type": "function"
    },
    {
      "constant": true,
      "inputs": [],
      "name": "priceChange",
      "outputs": [
        {
          "name": "",
          "type": "uint256"
        }
      ],
      "payable": false,
      "stateMutability": "view",
      "type": "function"
    },
    {
      "constant": false,
      "inputs": [
        {
          "name": "_from",
          "type": "address"
        },
        {
          "name": "_value",
          "type": "uint256"
        }
      ],
      "name": "burnFrom",
      "outputs": [
        {
          "name": "success",
          "type": "bool"
        }
      ],
      "payable": false,
      "stateMutability": "nonpayable",
      "type": "function"
    },
    {
      "constant": true,
      "inputs": [],
      "name": "live",
      "outputs": [
        {
          "name": "",
          "type": "uint8"
        }
      ],
      "payable": false,
      "stateMutability": "view",
      "type": "function"
    },
    {
      "constant": true,
      "inputs": [],
      "name": "symbol",
      "outputs": [
        {
          "name": "",
          "type": "string"
        }
      ],
      "payable": false,
      "stateMutability": "view",
      "type": "function"
    },
    {
      "constant": true,
      "inputs": [],
      "name": "rounds",
      "outputs": [
        {
          "name": "",
          "type": "uint256"
        }
      ],
      "payable": false,
      "stateMutability": "view",
      "type": "function"
    },
    {
      "constant": false,
      "inputs": [],
      "name": "buyToken",
      "outputs": [],
      "payable": true,
      "stateMutability": "payable",
      "type": "function"
    },
    {
      "constant": false,
      "inputs": [
        {
          "name": "_to",
          "type": "address"
        },
        {
          "name": "_value",
          "type": "uint256"
        }
      ],
      "name": "transfer",
      "outputs": [
        {
          "name": "success",
          "type": "bool"
        }
      ],
      "payable": false,
      "stateMutability": "nonpayable",
      "type": "function"
    },
    {
      "constant": true,
      "inputs": [
        {
          "name": "",
          "type": "address"
        },
        {
          "name": "",
          "type": "address"
        }
      ],
      "name": "allowance",
      "outputs": [
        {
          "name": "",
          "type": "uint256"
        }
      ],
      "payable": false,
      "stateMutability": "view",
      "type": "function"
    },
    {
      "inputs": [],
      "payable": true,
      "stateMutability": "payable",
      "type": "constructor"
    },
    {
      "anonymous": false,
      "inputs": [
        {
          "indexed": false,
          "name": "_totalBet",
          "type": "uint256"
        }
      ],
      "name": "LogTotalBet",
      "type": "event"
    },
    {
      "anonymous": false,
      "inputs": [
        {
          "indexed": false,
          "name": "rounds",
          "type": "uint256"
        },
        {
          "indexed": false,
          "name": "number",
          "type": "uint256"
        }
      ],
      "name": "LogRandomNumber",
      "type": "event"
    },
    {
      "anonymous": false,
      "inputs": [
        {
          "indexed": true,
          "name": "_user",
          "type": "address"
        },
        {
          "indexed": false,
          "name": "_name",
          "type": "string"
        },
        {
          "indexed": false,
          "name": "_avatar",
          "type": "string"
        },
        {
          "indexed": false,
          "name": "_isUser",
          "type": "bool"
        }
      ],
      "name": "LogAddUser",
      "type": "event"
    },
    {
      "anonymous": false,
      "inputs": [
        {
          "indexed": true,
          "name": "_user",
          "type": "address"
        },
        {
          "indexed": false,
          "name": "_betNum",
          "type": "uint256"
        },
        {
          "indexed": false,
          "name": "_betType",
          "type": "uint256"
        },
        {
          "indexed": false,
          "name": "_betAmount",
          "type": "uint256"
        },
        {
          "indexed": false,
          "name": "_betWin",
          "type": "uint256"
        }
      ],
      "name": "LogWinner",
      "type": "event"
    },
    {
      "anonymous": false,
      "inputs": [
        {
          "indexed": true,
          "name": "_user",
          "type": "address"
        },
        {
          "indexed": false,
          "name": "_check",
          "type": "bool"
        }
      ],
      "name": "LogRegisterUser",
      "type": "event"
    },
    {
      "anonymous": false,
      "inputs": [
        {
          "indexed": true,
          "name": "_user",
          "type": "address"
        },
        {
          "indexed": false,
          "name": "_name",
          "type": "string"
        },
        {
          "indexed": false,
          "name": "_avatar",
          "type": "string"
        }
      ],
      "name": "LogUpdateUser",
      "type": "event"
    },
    {
      "anonymous": false,
      "inputs": [
        {
          "indexed": true,
          "name": "from",
          "type": "address"
        },
        {
          "indexed": true,
          "name": "to",
          "type": "address"
        },
        {
          "indexed": false,
          "name": "value",
          "type": "uint256"
        }
      ],
      "name": "Transfer",
      "type": "event"
    },
    {
      "anonymous": false,
      "inputs": [
        {
          "indexed": true,
          "name": "_owner",
          "type": "address"
        },
        {
          "indexed": true,
          "name": "_spender",
          "type": "address"
        },
        {
          "indexed": false,
          "name": "_value",
          "type": "uint256"
        }
      ],
      "name": "Approval",
      "type": "event"
    },
    {
      "anonymous": false,
      "inputs": [
        {
          "indexed": false,
          "name": "_amount",
          "type": "uint256"
        }
      ],
      "name": "Increase",
      "type": "event"
    },
    {
      "anonymous": false,
      "inputs": [
        {
          "indexed": true,
          "name": "from",
          "type": "address"
        },
        {
          "indexed": false,
          "name": "value",
          "type": "uint256"
        }
      ],
      "name": "Burn",
      "type": "event"
    },
    {
      "anonymous": false,
      "inputs": [
        {
          "indexed": true,
          "name": "buyer",
          "type": "address"
        },
        {
          "indexed": false,
          "name": "value",
          "type": "uint256"
        }
      ],
      "name": "BuyToken",
      "type": "event"
    },
    {
      "constant": true,
      "inputs": [],
      "name": "checkRegister",
      "outputs": [
        {
          "name": "",
          "type": "bool"
        }
      ],
      "payable": false,
      "stateMutability": "view",
      "type": "function"
    },
    {
      "constant": false,
      "inputs": [],
      "name": "registerUser",
      "outputs": [],
      "payable": false,
      "stateMutability": "nonpayable",
      "type": "function"
    },
    {
      "constant": false,
      "inputs": [
        {
          "name": "_name",
          "type": "string"
        },
        {
          "name": "_avatar",
          "type": "string"
        }
      ],
      "name": "updateUserNameAndAvatar",
      "outputs": [
        {
          "name": "",
          "type": "bool"
        }
      ],
      "payable": false,
      "stateMutability": "nonpayable",
      "type": "function"
    },
    {
      "constant": false,
      "inputs": [
        {
          "name": "_name",
          "type": "string"
        }
      ],
      "name": "updateUserName",
      "outputs": [
        {
          "name": "",
          "type": "bool"
        }
      ],
      "payable": false,
      "stateMutability": "nonpayable",
      "type": "function"
    },
    {
      "constant": false,
      "inputs": [
        {
          "name": "_avatar",
          "type": "string"
        }
      ],
      "name": "updateUserAvatar",
      "outputs": [
        {
          "name": "",
          "type": "bool"
        }
      ],
      "payable": false,
      "stateMutability": "nonpayable",
      "type": "function"
    },
    {
      "constant": true,
      "inputs": [
        {
          "name": "_userAddress",
          "type": "address"
        }
      ],
      "name": "getUser",
      "outputs": [
        {
          "name": "_name",
          "type": "string"
        },
        {
          "name": "_avatar",
          "type": "string"
        }
      ],
      "payable": false,
      "stateMutability": "view",
      "type": "function"
    },
    {
      "constant": false,
      "inputs": [],
      "name": "changeLive",
      "outputs": [],
      "payable": false,
      "stateMutability": "nonpayable",
      "type": "function"
    },
    {
      "constant": true,
      "inputs": [],
      "name": "getStatus",
      "outputs": [
        {
          "name": "",
          "type": "uint256"
        },
        {
          "name": "",
          "type": "uint256"
        },
        {
          "name": "",
          "type": "uint256"
        },
        {
          "name": "",
          "type": "uint256"
        },
        {
          "name": "",
          "type": "uint256"
        }
      ],
      "payable": false,
      "stateMutability": "view",
      "type": "function"
    },
    {
      "constant": false,
      "inputs": [],
      "name": "addEther",
      "outputs": [],
      "payable": true,
      "stateMutability": "payable",
      "type": "function"
    },
    {
      "constant": false,
      "inputs": [
        {
          "name": "number",
          "type": "uint8"
        },
        {
          "name": "betType",
          "type": "uint8"
        },
        {
          "name": "betAmount",
          "type": "uint256"
        }
      ],
      "name": "bet",
      "outputs": [],
      "payable": true,
      "stateMutability": "payable",
      "type": "function"
    },
    {
      "constant": false,
      "inputs": [],
      "name": "spinWheel",
      "outputs": [],
      "payable": false,
      "stateMutability": "nonpayable",
      "type": "function"
    },
    {
      "constant": false,
      "inputs": [],
      "name": "cashOut",
      "outputs": [],
      "payable": false,
      "stateMutability": "nonpayable",
      "type": "function"
    },
    {
      "constant": false,
      "inputs": [],
      "name": "creatorKill",
      "outputs": [],
      "payable": false,
      "stateMutability": "nonpayable",
      "type": "function"
    }
  ],
  "bytecode": "0x6080604052655af3107a40006003556040805190810160405280600481526020017f4b68616900000000000000000000000000000000000000000000000000000000815250600090805190602001906200005b929190620002b1565b506012600260006101000a81548160ff021916908360ff1602179055506040805190810160405280600381526020017f4b5443000000000000000000000000000000000000000000000000000000000081525060019080519060200190620000c5929190620002b1565b506103e860068190555033600560006101000a81548173ffffffffffffffffffffffffffffffffffffffff021916908373ffffffffffffffffffffffffffffffffffffffff160217905550600260009054906101000a900460ff1660ff16600a0a60065402600481905550600454600760003373ffffffffffffffffffffffffffffffffffffffff1673ffffffffffffffffffffffffffffffffffffffff1681526020019081526020016000208190555033600d60006101000a81548173ffffffffffffffffffffffffffffffffffffffff021916908373ffffffffffffffffffffffffffffffffffffffff1602179055506000600b81905550600060098190555042600c8190555060c060405190810160405280600260ff168152602001600360ff168152602001600360ff168152602001600260ff168152602001600260ff168152602001602460ff1681525060109060066200022692919062000338565b5060c060405190810160405280600160ff168152602001600260ff168152602001600260ff168152602001600160ff168152602001600160ff168152602001602460ff1681525060119060066200027f92919062000338565b50671bc16d674ec80000600e819055506000600a60006101000a81548160ff021916908360ff16021790555062000441565b828054600181600116156101000203166002900490600052602060002090601f016020900481019282601f10620002f457805160ff191683800117855562000325565b8280016001018555821562000325579182015b828111156200032457825182559160200191906001019062000307565b5b509050620003349190620003e6565b5090565b82805482825590600052602060002090601f01602090048101928215620003d35791602002820160005b83821115620003a257835183826101000a81548160ff021916908360ff160217905550926020019260010160208160000104928301926001030262000362565b8015620003d15782816101000a81549060ff0219169055600101602081600001049283019260010302620003a2565b505b509050620003e291906200040e565b5090565b6200040b91905b8082111562000407576000816000905550600101620003ed565b5090565b90565b6200043e91905b808211156200043a57600081816101000a81549060ff02191690555060010162000415565b5090565b90565b613afb80620004516000396000f3fe60806040526004361061019b576000357c01000000000000000000000000000000000000000000000000000000009004806306fdde03146101a0578063095ea7b31461023057806315ecef92146102a357806318160ddd146102ba57806318ab30e6146102e55780632194f3a21461032d578063222881821461038457806322af00fa1461039b57806323b872dd146104375780632ad95786146104ca5780632e5ff4da1461052f57806330f3f0db1461060f578063313ce5671461064a578063378dc3dc1461067b57806342966c68146106a65780634d3820eb146106f95780634e69d560146107105780636f77926b1461075757806370a082311461088d57806371d9ffce146108f2578063793cd71e1461091d57806379cc6790146109345780638894dd2b146109a75780638c0e554f146109b1578063957aa58c146109c857806395d89b41146109f9578063a2e800ad14610a89578063a482171914610ab4578063a9059cbb14610abe578063af9036a114610b31578063bd0062f214610c11578063dd62ed3e14610c40578063f4ca5b4514610cc5575b600080fd5b3480156101ac57600080fd5b506101b5610e3c565b6040518080602001828103825283818151815260200191508051906020019080838360005b838110156101f55780820151818401526020810190506101da565b50505050905090810190601f1680156102225780820380516001836020036101000a031916815260200191505b509250505060405180910390f35b34801561023c57600080fd5b506102896004803603604081101561025357600080fd5b81019080803573ffffffffffffffffffffffffffffffffffffffff16906020019092919080359060200190929190505050610eda565b604051808215151515815260200191505060405180910390f35b3480156102af57600080fd5b506102b8610fcc565b005b3480156102c657600080fd5b506102cf611a09565b6040518082815260200191505060405180910390f35b61032b600480360360608110156102fb57600080fd5b81019080803560ff169060200190929190803560ff16906020019092919080359060200190929190505050611a0f565b005b34801561033957600080fd5b50610342611db1565b604051808273ffffffffffffffffffffffffffffffffffffffff1673ffffffffffffffffffffffffffffffffffffffff16815260200191505060405180910390f35b34801561039057600080fd5b50610399611dd7565b005b3480156103a757600080fd5b506103d4600480360360208110156103be57600080fd5b8101908080359060200190929190505050611e51565b604051808573ffffffffffffffffffffffffffffffffffffffff1673ffffffffffffffffffffffffffffffffffffffff1681526020018460ff1660ff1681526020018360ff1660ff16815260200182815260200194505050505060405180910390f35b34801561044357600080fd5b506104b06004803603606081101561045a57600080fd5b81019080803573ffffffffffffffffffffffffffffffffffffffff169060200190929190803573ffffffffffffffffffffffffffffffffffffffff16906020019092919080359060200190929190505050611eca565b604051808215151515815260200191505060405180910390f35b3480156104d657600080fd5b50610519600480360360208110156104ed57600080fd5b81019080803573ffffffffffffffffffffffffffffffffffffffff16906020019092919050505061207c565b6040518082815260200191505060405180910390f35b34801561053b57600080fd5b506105f56004803603602081101561055257600080fd5b810190808035906020019064010000000081111561056f57600080fd5b82018360208201111561058157600080fd5b803590602001918460018302840111640100000000831117156105a357600080fd5b91908080601f016020809104026020016040519081016040528093929190818152602001838380828437600081840152601f19601f820116905080830192505050505050509192919290505050612094565b604051808215151515815260200191505060405180910390f35b34801561061b57600080fd5b506106486004803603602081101561063257600080fd5b810190808035906020019092919050505061223b565b005b34801561065657600080fd5b5061065f612381565b604051808260ff1660ff16815260200191505060405180910390f35b34801561068757600080fd5b50610690612394565b6040518082815260200191505060405180910390f35b3480156106b257600080fd5b506106df600480360360208110156106c957600080fd5b810190808035906020019092919050505061239a565b604051808215151515815260200191505060405180910390f35b34801561070557600080fd5b5061070e6124f1565b005b34801561071c57600080fd5b50610725612624565b604051808681526020018581526020018481526020018381526020018281526020019550505050505060405180910390f35b34801561076357600080fd5b506107a66004803603602081101561077a57600080fd5b81019080803573ffffffffffffffffffffffffffffffffffffffff1690602001909291905050506126a1565b604051808060200180602001838103835285818151815260200191508051906020019080838360005b838110156107ea5780820151818401526020810190506107cf565b50505050905090810190601f1680156108175780820380516001836020036101000a031916815260200191505b50838103825284818151815260200191508051906020019080838360005b83811015610850578082015181840152602081019050610835565b50505050905090810190601f16801561087d5780820380516001836020036101000a031916815260200191505b5094505050505060405180910390f35b34801561089957600080fd5b506108dc600480360360208110156108b057600080fd5b81019080803573ffffffffffffffffffffffffffffffffffffffff169060200190929190505050612869565b6040518082815260200191505060405180910390f35b3480156108fe57600080fd5b50610907612881565b6040518082815260200191505060405180910390f35b34801561092957600080fd5b50610932612887565b005b34801561094057600080fd5b5061098d6004803603604081101561095757600080fd5b81019080803573ffffffffffffffffffffffffffffffffffffffff16906020019092919080359060200190929190505050612a54565b604051808215151515815260200191505060405180910390f35b6109af612d46565b005b3480156109bd57600080fd5b506109c6612d48565b005b3480156109d457600080fd5b506109dd612ddf565b604051808260ff1660ff16815260200191505060405180910390f35b348015610a0557600080fd5b50610a0e612df2565b6040518080602001828103825283818151815260200191508051906020019080838360005b83811015610a4e578082015181840152602081019050610a33565b50505050905090810190601f168015610a7b5780820380516001836020036101000a031916815260200191505b509250505060405180910390f35b348015610a9557600080fd5b50610a9e612e90565b6040518082815260200191505060405180910390f35b610abc612e96565b005b348015610aca57600080fd5b50610b1760048036036040811015610ae157600080fd5b81019080803573ffffffffffffffffffffffffffffffffffffffff16906020019092919080359060200190929190505050613096565b604051808215151515815260200191505060405180910390f35b348015610b3d57600080fd5b50610bf760048036036020811015610b5457600080fd5b8101908080359060200190640100000000811115610b7157600080fd5b820183602082011115610b8357600080fd5b80359060200191846001830284011164010000000083111715610ba557600080fd5b91908080601f016020809104026020016040519081016040528093929190818152602001838380828437600081840152601f19601f8201169050808301925050505050505091929192905050506130ad565b604051808215151515815260200191505060405180910390f35b348015610c1d57600080fd5b50610c26613254565b604051808215151515815260200191505060405180910390f35b348015610c4c57600080fd5b50610caf60048036036040811015610c6357600080fd5b81019080803573ffffffffffffffffffffffffffffffffffffffff169060200190929190803573ffffffffffffffffffffffffffffffffffffffff1690602001909291905050506132bc565b6040518082815260200191505060405180910390f35b348015610cd157600080fd5b50610e2260048036036040811015610ce857600080fd5b8101908080359060200190640100000000811115610d0557600080fd5b820183602082011115610d1757600080fd5b80359060200191846001830284011164010000000083111715610d3957600080fd5b91908080601f016020809104026020016040519081016040528093929190818152602001838380828437600081840152601f19601f82011690508083019250505050505050919291929080359060200190640100000000811115610d9c57600080fd5b820183602082011115610dae57600080fd5b80359060200191846001830284011164010000000083111715610dd057600080fd5b91908080601f016020809104026020016040519081016040528093929190818152602001838380828437600081840152601f19601f8201169050808301925050505050505091929192905050506132e1565b604051808215151515815260200191505060405180910390f35b60008054600181600116156101000203166002900480601f016020809104026020016040519081016040528092919081815260200182805460018160011615610100020316600290048015610ed25780601f10610ea757610100808354040283529160200191610ed2565b820191906000526020600020905b815481529060010190602001808311610eb557829003601f168201915b505050505081565b600081600860003373ffffffffffffffffffffffffffffffffffffffff1673ffffffffffffffffffffffffffffffffffffffff16815260200190815260200160002060008573ffffffffffffffffffffffffffffffffffffffff1673ffffffffffffffffffffffffffffffffffffffff168152602001908152602001600020819055508273ffffffffffffffffffffffffffffffffffffffff163373ffffffffffffffffffffffffffffffffffffffff167f8c5be1e5ebec7d5bd14f71427d1e84f3dd0314c0f7b2291e5b200ac8c7c3b925846040518082815260200191505060405180910390a36001905092915050565b7fc0e67202d234bc6d22a335ed51c176db1309f60ab5ecb9c4c72c74fa649a826c6012546040518082815260200191505060405180910390a13373ffffffffffffffffffffffffffffffffffffffff16600d60009054906101000a900473ffffffffffffffffffffffffffffffffffffffff1673ffffffffffffffffffffffffffffffffffffffff1614151561106157600080fd5b6001600a60009054906101000a900460ff1660ff1614151561108257600080fd5b600060158054905011151561109657600080fd5b600c54421115156110a657600080fd5b42600c81905550600160096000828254019250508190555060004490506000600143034090506110d461393d565b60156001601580549050038154811015156110eb57fe5b9060005260206000209060020201608060405190810160405290816000820160009054906101000a900473ffffffffffffffffffffffffffffffffffffffff1673ffffffffffffffffffffffffffffffffffffffff1673ffffffffffffffffffffffffffffffffffffffff1681526020016000820160149054906101000a900460ff1660ff1660ff1681526020016000820160159054906101000a900460ff1660ff1660ff168152602001600182015481525050905060006025428585856020015186600001518760400151604051602001808781526020018681526020018581526020018460ff1660ff167f01000000000000000000000000000000000000000000000000000000000000000281526001018373ffffffffffffffffffffffffffffffffffffffff1673ffffffffffffffffffffffffffffffffffffffff166c010000000000000000000000000281526014018260ff1660ff167f01000000000000000000000000000000000000000000000000000000000000000281526001019650505050505050604051602081830303815290604052805190602001206001900481151561129857fe5b06905060008090505b60158054905081101561195b5760008090506112bb61393d565b6015838154811015156112ca57fe5b9060005260206000209060020201608060405190810160405290816000820160009054906101000a900473ffffffffffffffffffffffffffffffffffffffff1673ffffffffffffffffffffffffffffffffffffffff1673ffffffffffffffffffffffffffffffffffffffff1681526020016000820160149054906101000a900460ff1660ff1660ff1681526020016000820160159054906101000a900460ff1660ff1660ff168152602001600182015481525050905060008414156113ae576005816020015160ff161480156113a757506000816040015160ff16145b915061161c565b6005816020015160ff1614156113cf5783816040015160ff1614915061161b565b6004816020015160ff16141561142a576000816040015160ff1614156114025760006002858115156113fd57fe5b061491505b6001816040015160ff16141561142557600160028581151561142057fe5b061491505b61161a565b6003816020015160ff16141561146f576000816040015160ff16141561145257601284111591505b6001816040015160ff16141561146a57601384101591505b611619565b6002816020015160ff1614156114d7576000816040015160ff16141561149757600c84111591505b6001816040015160ff1614156114bb57600c841180156114b8575060188411155b91505b6002816040015160ff1614156114d2576018841191505b611618565b6001816020015160ff161415611555576000816040015160ff16141561150a57600160038581151561150557fe5b061491505b6001816040015160ff16141561152d57600260038581151561152857fe5b061491505b6002816040015160ff16141561155057600060038581151561154b57fe5b061491505b611617565b6000816020015160ff161415611616576000816040015160ff1614156115c757600a841115806115935750601484101580156115925750601c8411155b5b156115af5760006002858115156115a657fe5b061491506115c2565b60016002858115156115bd57fe5b061491505b611615565b600a841115806115e55750601484101580156115e45750601c8411155b5b156116015760016002858115156115f857fe5b06149150611614565b600060028581151561160f57fe5b061491505b5b5b5b5b5b5b5b5b811561194c576010816020015160ff1681548110151561163857fe5b90600052602060002090602091828204019190069054906101000a900460ff1660ff16816060015102600f6000836000015173ffffffffffffffffffffffffffffffffffffffff1673ffffffffffffffffffffffffffffffffffffffff16815260200190815260200160002060008282540192505081905550806060015160136000836000015173ffffffffffffffffffffffffffffffffffffffff1673ffffffffffffffffffffffffffffffffffffffff16815260200190815260200160002081905550806000015173ffffffffffffffffffffffffffffffffffffffff167f7b9541ba8d164a1f14f72a2d5ace9088bb5ce39c80a4bdfac1d4795970ceee21826040015183602001518460600151600f6000876000015173ffffffffffffffffffffffffffffffffffffffff1673ffffffffffffffffffffffffffffffffffffffff16815260200190815260200160002054604051808560ff1681526020018460ff16815260200183815260200182815260200194505050505060405180910390a2600f6000826000015173ffffffffffffffffffffffffffffffffffffffff1673ffffffffffffffffffffffffffffffffffffffff1681526020019081526020016000205460076000836000015173ffffffffffffffffffffffffffffffffffffffff1673ffffffffffffffffffffffffffffffffffffffff16815260200190815260200160002060008282540192505081905550600f6000826000015173ffffffffffffffffffffffffffffffffffffffff1673ffffffffffffffffffffffffffffffffffffffff1681526020019081526020016000205460076000600d60009054906101000a900473ffffffffffffffffffffffffffffffffffffffff1673ffffffffffffffffffffffffffffffffffffffff1673ffffffffffffffffffffffffffffffffffffffff168152602001908152602001600020600082825403925050819055506000600f6000836000015173ffffffffffffffffffffffffffffffffffffffff1673ffffffffffffffffffffffffffffffffffffffff168152602001908152602001600020819055505b505080806001019150506112a1565b506000600a60006101000a81548160ff021916908360ff16021790555060006015816119879190613982565b506000600b819055506000601281905550600e543073ffffffffffffffffffffffffffffffffffffffff163111156119c2576119c1613482565b5b7f3ba67a90f563b4f06ac7621a34d6707d5082f103022c2c6bc6171c118760b45d60095482604051808381526020018281526020019250505060405180910390a150505050565b60045481565b60008260ff1610158015611a27575060058260ff1611155b1515611a3257600080fd5b60008360ff1610158015611a7d575060118260ff16815481101515611a5357fe5b90600052602060002090602091828204019190069054906101000a900460ff1660ff168360ff1611155b1515611a8857600080fd5b60008160108460ff16815481101515611a9d57fe5b90600052602060002090602091828204019190069054906101000a900460ff1660ff16029050600081600b5401905060076000600d60009054906101000a900473ffffffffffffffffffffffffffffffffffffffff1673ffffffffffffffffffffffffffffffffffffffff1673ffffffffffffffffffffffffffffffffffffffff1681526020019081526020016000205481101515611b3b57600080fd5b600083111515611b4a57600080fd5b82600760003373ffffffffffffffffffffffffffffffffffffffff1673ffffffffffffffffffffffffffffffffffffffff1681526020019081526020016000205410151515611b9857600080fd5b6033601580549050101515611bac57600080fd5b6001600a60009054906101000a900460ff1660ff16141515611bcd57600080fd5b81600b6000828254019250508190555082600760003373ffffffffffffffffffffffffffffffffffffffff1673ffffffffffffffffffffffffffffffffffffffff168152602001908152602001600020600082825403925050819055508260076000600d60009054906101000a900473ffffffffffffffffffffffffffffffffffffffff1673ffffffffffffffffffffffffffffffffffffffff1673ffffffffffffffffffffffffffffffffffffffff1681526020019081526020016000206000828254019250508190555060156080604051908101604052803373ffffffffffffffffffffffffffffffffffffffff1681526020018660ff1681526020018760ff168152602001858152509080600181540180825580915050906001820390600052602060002090600202016000909192909190915060008201518160000160006101000a81548173ffffffffffffffffffffffffffffffffffffffff021916908373ffffffffffffffffffffffffffffffffffffffff16021790555060208201518160000160146101000a81548160ff021916908360ff16021790555060408201518160000160156101000a81548160ff021916908360ff16021790555060608201518160010155505050826012600082825401925050819055505050505050565b600560009054906101000a900473ffffffffffffffffffffffffffffffffffffffff1681565b600d60009054906101000a900473ffffffffffffffffffffffffffffffffffffffff1673ffffffffffffffffffffffffffffffffffffffff163373ffffffffffffffffffffffffffffffffffffffff16141515611e3357600080fd5b6001600a60006101000a81548160ff021916908360ff160217905550565b601581815481101515611e6057fe5b90600052602060002090600202016000915090508060000160009054906101000a900473ffffffffffffffffffffffffffffffffffffffff16908060000160149054906101000a900460ff16908060000160159054906101000a900460ff16908060010154905084565b6000600860008573ffffffffffffffffffffffffffffffffffffffff1673ffffffffffffffffffffffffffffffffffffffff16815260200190815260200160002060003373ffffffffffffffffffffffffffffffffffffffff1673ffffffffffffffffffffffffffffffffffffffff168152602001908152602001600020548211151515611f5757600080fd5b611fe682600860008773ffffffffffffffffffffffffffffffffffffffff1673ffffffffffffffffffffffffffffffffffffffff16815260200190815260200160002060003373ffffffffffffffffffffffffffffffffffffffff1673ffffffffffffffffffffffffffffffffffffffff1681526020019081526020016000205461351890919063ffffffff16565b600860008673ffffffffffffffffffffffffffffffffffffffff1673ffffffffffffffffffffffffffffffffffffffff16815260200190815260200160002060003373ffffffffffffffffffffffffffffffffffffffff1673ffffffffffffffffffffffffffffffffffffffff16815260200190815260200160002081905550612071848484613531565b600190509392505050565b60136020528060005260406000206000915090505481565b600080601460003373ffffffffffffffffffffffffffffffffffffffff1673ffffffffffffffffffffffffffffffffffffffff1681526020019081526020016000209050828160020190805190602001906120f09291906139b4565b503373ffffffffffffffffffffffffffffffffffffffff167f707a51e22adda2785d3e6b2a38a7e49a4c21cf8da1a55452af2904ea1276d37782600101856040518080602001806020018381038352858181546001816001161561010002031660029004815260200191508054600181600116156101000203166002900480156121bb5780601f10612190576101008083540402835291602001916121bb565b820191906000526020600020905b81548152906001019060200180831161219e57829003601f168201915b5050838103825284818151815260200191508051906020019080838360005b838110156121f55780820151818401526020810190506121da565b50505050905090810190601f1680156122225780820380516001836020036101000a031916815260200191505b5094505050505060405180910390a26001915050919050565b600560009054906101000a900473ffffffffffffffffffffffffffffffffffffffff1673ffffffffffffffffffffffffffffffffffffffff163373ffffffffffffffffffffffffffffffffffffffff1614151561229757600080fd5b6122e981600760003373ffffffffffffffffffffffffffffffffffffffff1673ffffffffffffffffffffffffffffffffffffffff1681526020019081526020016000205461391f90919063ffffffff16565b600760003373ffffffffffffffffffffffffffffffffffffffff1673ffffffffffffffffffffffffffffffffffffffff168152602001908152602001600020819055506123418160045461391f90919063ffffffff16565b6004819055507f13ea9ba2786de9090cfebb7f725105b970c4a729e2f057ebecfb7c7bfbd1425c816040518082815260200191505060405180910390a150565b600260009054906101000a900460ff1681565b60065481565b600081600760003373ffffffffffffffffffffffffffffffffffffffff1673ffffffffffffffffffffffffffffffffffffffff16815260200190815260200160002054101515156123ea57600080fd5b61243c82600760003373ffffffffffffffffffffffffffffffffffffffff1673ffffffffffffffffffffffffffffffffffffffff1681526020019081526020016000205461351890919063ffffffff16565b600760003373ffffffffffffffffffffffffffffffffffffffff1673ffffffffffffffffffffffffffffffffffffffff168152602001908152602001600020819055506124948260045461351890919063ffffffff16565b6004819055503373ffffffffffffffffffffffffffffffffffffffff167fcc16f5dbb4873280815c1ee09dbd06736cffcc184412cf7a71a0fdb75d397ca5836040518082815260200191505060405180910390a260019050919050565b600015156124fd613254565b1515141515612574576040517f08c379a00000000000000000000000000000000000000000000000000000000081526004018080602001828103825260108152602001807f596f75206172652072656769737465720000000000000000000000000000000081525060200191505060405180910390fd5b6001601460003373ffffffffffffffffffffffffffffffffffffffff1673ffffffffffffffffffffffffffffffffffffffff16815260200190815260200160002060030160006101000a81548160ff0219169083151502179055503373ffffffffffffffffffffffffffffffffffffffff167fe740476672acef7f24564eb48acd18c20b5e4dd77b1c6961f5fe0c6c77d3c38e6001604051808215151515815260200191505060405180910390a2565b6000806000806000601580549050600c543073ffffffffffffffffffffffffffffffffffffffff1631600f60003373ffffffffffffffffffffffffffffffffffffffff1673ffffffffffffffffffffffffffffffffffffffff16815260200190815260200160002054601254945094509450945094509091929394565b606080601460008473ffffffffffffffffffffffffffffffffffffffff1673ffffffffffffffffffffffffffffffffffffffff168152602001908152602001600020600101601460008573ffffffffffffffffffffffffffffffffffffffff1673ffffffffffffffffffffffffffffffffffffffff168152602001908152602001600020600201818054600181600116156101000203166002900480601f0160208091040260200160405190810160405280929190818152602001828054600181600116156101000203166002900480156127bd5780601f10612792576101008083540402835291602001916127bd565b820191906000526020600020905b8154815290600101906020018083116127a057829003601f168201915b50505050509150808054600181600116156101000203166002900480601f0160208091040260200160405190810160405280929190818152602001828054600181600116156101000203166002900480156128595780601f1061282e57610100808354040283529160200191612859565b820191906000526020600020905b81548152906001019060200180831161283c57829003601f168201915b5050505050905091509150915091565b60076020528060005260406000206000915090505481565b60035481565b60003390506000600f60008373ffffffffffffffffffffffffffffffffffffffff1673ffffffffffffffffffffffffffffffffffffffff1681526020019081526020016000205490506000811115156128df57600080fd5b60076000600d60009054906101000a900473ffffffffffffffffffffffffffffffffffffffff1673ffffffffffffffffffffffffffffffffffffffff1673ffffffffffffffffffffffffffffffffffffffff16815260200190815260200160002054811115151561294f57600080fd5b6000600f60008473ffffffffffffffffffffffffffffffffffffffff1673ffffffffffffffffffffffffffffffffffffffff1681526020019081526020016000208190555080600760008473ffffffffffffffffffffffffffffffffffffffff1673ffffffffffffffffffffffffffffffffffffffff168152602001908152602001600020600082825401925050819055508060076000600d60009054906101000a900473ffffffffffffffffffffffffffffffffffffffff1673ffffffffffffffffffffffffffffffffffffffff1673ffffffffffffffffffffffffffffffffffffffff168152602001908152602001600020600082825403925050819055505050565b600081600760008573ffffffffffffffffffffffffffffffffffffffff1673ffffffffffffffffffffffffffffffffffffffff1681526020019081526020016000205410151515612aa457600080fd5b600860008473ffffffffffffffffffffffffffffffffffffffff1673ffffffffffffffffffffffffffffffffffffffff16815260200190815260200160002060003373ffffffffffffffffffffffffffffffffffffffff1673ffffffffffffffffffffffffffffffffffffffff168152602001908152602001600020548211151515612b2f57600080fd5b612b8182600760008673ffffffffffffffffffffffffffffffffffffffff1673ffffffffffffffffffffffffffffffffffffffff1681526020019081526020016000205461351890919063ffffffff16565b600760008573ffffffffffffffffffffffffffffffffffffffff1673ffffffffffffffffffffffffffffffffffffffff16815260200190815260200160002081905550612c5382600860008673ffffffffffffffffffffffffffffffffffffffff1673ffffffffffffffffffffffffffffffffffffffff16815260200190815260200160002060003373ffffffffffffffffffffffffffffffffffffffff1673ffffffffffffffffffffffffffffffffffffffff1681526020019081526020016000205461351890919063ffffffff16565b600860008573ffffffffffffffffffffffffffffffffffffffff1673ffffffffffffffffffffffffffffffffffffffff16815260200190815260200160002060003373ffffffffffffffffffffffffffffffffffffffff1673ffffffffffffffffffffffffffffffffffffffff16815260200190815260200160002081905550612ce88260045461351890919063ffffffff16565b6004819055508273ffffffffffffffffffffffffffffffffffffffff167fcc16f5dbb4873280815c1ee09dbd06736cffcc184412cf7a71a0fdb75d397ca5836040518082815260200191505060405180910390a26001905092915050565b565b600d60009054906101000a900473ffffffffffffffffffffffffffffffffffffffff1673ffffffffffffffffffffffffffffffffffffffff163373ffffffffffffffffffffffffffffffffffffffff16141515612da457600080fd5b600d60009054906101000a900473ffffffffffffffffffffffffffffffffffffffff1673ffffffffffffffffffffffffffffffffffffffff16ff5b600a60009054906101000a900460ff1681565b60018054600181600116156101000203166002900480601f016020809104026020016040519081016040528092919081815260200182805460018160011615610100020316600290048015612e885780601f10612e5d57610100808354040283529160200191612e88565b820191906000526020600020905b815481529060010190602001808311612e6b57829003601f168201915b505050505081565b60095481565b600073ffffffffffffffffffffffffffffffffffffffff163373ffffffffffffffffffffffffffffffffffffffff1614151515612ed257600080fd5b600034111515612ee157600080fd5b600560009054906101000a900473ffffffffffffffffffffffffffffffffffffffff1673ffffffffffffffffffffffffffffffffffffffff163373ffffffffffffffffffffffffffffffffffffffff1614151515612f3e57600080fd5b600560009054906101000a900473ffffffffffffffffffffffffffffffffffffffff1673ffffffffffffffffffffffffffffffffffffffff166108fc349081150290604051600060405180830381858888f19350505050158015612fa6573d6000803e3d6000fd5b506000620186a034029050806004600082825401925050819055507f13ea9ba2786de9090cfebb7f725105b970c4a729e2f057ebecfb7c7bfbd1425c816040518082815260200191505060405180910390a180600760003373ffffffffffffffffffffffffffffffffffffffff1673ffffffffffffffffffffffffffffffffffffffff168152602001908152602001600020600082825401925050819055503373ffffffffffffffffffffffffffffffffffffffff167fdd06b66c3ba8126086cd863137d6f3b86ce5bcf4309cac390cc265e39194d0b2826040518082815260200191505060405180910390a250565b60006130a3338484613531565b6001905092915050565b600080601460003373ffffffffffffffffffffffffffffffffffffffff1673ffffffffffffffffffffffffffffffffffffffff1681526020019081526020016000209050828160010190805190602001906131099291906139b4565b503373ffffffffffffffffffffffffffffffffffffffff167f707a51e22adda2785d3e6b2a38a7e49a4c21cf8da1a55452af2904ea1276d3778483600201604051808060200180602001838103835285818151815260200191508051906020019080838360005b8381101561318b578082015181840152602081019050613170565b50505050905090810190601f1680156131b85780820380516001836020036101000a031916815260200191505b5083810382528481815460018160011615610100020316600290048152602001915080546001816001161561010002031660029004801561323a5780601f1061320f5761010080835404028352916020019161323a565b820191906000526020600020905b81548152906001019060200180831161321d57829003601f168201915b505094505050505060405180910390a26001915050919050565b6000601460003373ffffffffffffffffffffffffffffffffffffffff1673ffffffffffffffffffffffffffffffffffffffff16815260200190815260200160002060030160009054906101000a900460ff16156132b457600190506132b9565b600090505b90565b6008602052816000526040600020602052806000526040600020600091509150505481565b600080601460003373ffffffffffffffffffffffffffffffffffffffff1673ffffffffffffffffffffffffffffffffffffffff16815260200190815260200160002090508381600101908051906020019061333d9291906139b4565b50828160020190805190602001906133569291906139b4565b503373ffffffffffffffffffffffffffffffffffffffff167f707a51e22adda2785d3e6b2a38a7e49a4c21cf8da1a55452af2904ea1276d3778585604051808060200180602001838103835285818151815260200191508051906020019080838360005b838110156133d55780820151818401526020810190506133ba565b50505050905090810190601f1680156134025780820380516001836020036101000a031916815260200191505b50838103825284818151815260200191508051906020019080838360005b8381101561343b578082015181840152602081019050613420565b50505050905090810190601f1680156134685780820380516001836020036101000a031916815260200191505b5094505050505060405180910390a2600191505092915050565b6000600e543073ffffffffffffffffffffffffffffffffffffffff1631039050600081111561351557600d60009054906101000a900473ffffffffffffffffffffffffffffffffffffffff1673ffffffffffffffffffffffffffffffffffffffff166108fc829081150290604051600060405180830381858888f19350505050158015613513573d6000803e3d6000fd5b505b50565b600082821115151561352657fe5b818303905092915050565b600073ffffffffffffffffffffffffffffffffffffffff168273ffffffffffffffffffffffffffffffffffffffff161415151561356d57600080fd5b80600760008573ffffffffffffffffffffffffffffffffffffffff1673ffffffffffffffffffffffffffffffffffffffff16815260200190815260200160002054101515156135bb57600080fd5b600760008373ffffffffffffffffffffffffffffffffffffffff1673ffffffffffffffffffffffffffffffffffffffff1681526020019081526020016000205461364d82600760008673ffffffffffffffffffffffffffffffffffffffff1673ffffffffffffffffffffffffffffffffffffffff1681526020019081526020016000205461391f90919063ffffffff16565b1015151561365a57600080fd5b60006136ed600760008573ffffffffffffffffffffffffffffffffffffffff1673ffffffffffffffffffffffffffffffffffffffff16815260200190815260200160002054600760008773ffffffffffffffffffffffffffffffffffffffff1673ffffffffffffffffffffffffffffffffffffffff1681526020019081526020016000205461391f90919063ffffffff16565b905061374182600760008773ffffffffffffffffffffffffffffffffffffffff1673ffffffffffffffffffffffffffffffffffffffff1681526020019081526020016000205461351890919063ffffffff16565b600760008673ffffffffffffffffffffffffffffffffffffffff1673ffffffffffffffffffffffffffffffffffffffff168152602001908152602001600020819055506137d682600760008673ffffffffffffffffffffffffffffffffffffffff1673ffffffffffffffffffffffffffffffffffffffff1681526020019081526020016000205461391f90919063ffffffff16565b600760008573ffffffffffffffffffffffffffffffffffffffff1673ffffffffffffffffffffffffffffffffffffffff168152602001908152602001600020819055508273ffffffffffffffffffffffffffffffffffffffff168473ffffffffffffffffffffffffffffffffffffffff167fddf252ad1be2c89b69c2b068fc378daa952ba7f163c4a11628f55a4df523b3ef846040518082815260200191505060405180910390a380613910600760008673ffffffffffffffffffffffffffffffffffffffff1673ffffffffffffffffffffffffffffffffffffffff16815260200190815260200160002054600760008873ffffffffffffffffffffffffffffffffffffffff1673ffffffffffffffffffffffffffffffffffffffff1681526020019081526020016000205461391f90919063ffffffff16565b14151561391957fe5b50505050565b600080828401905083811015151561393357fe5b8091505092915050565b608060405190810160405280600073ffffffffffffffffffffffffffffffffffffffff168152602001600060ff168152602001600060ff168152602001600081525090565b8154818355818111156139af576002028160020283600052602060002091820191016139ae9190613a34565b5b505050565b828054600181600116156101000203166002900490600052602060002090601f016020900481019282601f106139f557805160ff1916838001178555613a23565b82800160010185558215613a23579182015b82811115613a22578251825591602001919060010190613a07565b5b509050613a309190613aaa565b5090565b613aa791905b80821115613aa357600080820160006101000a81549073ffffffffffffffffffffffffffffffffffffffff02191690556000820160146101000a81549060ff02191690556000820160156101000a81549060ff0219169055600182016000905550600201613a3a565b5090565b90565b613acc91905b80821115613ac8576000816000905550600101613ab0565b5090565b9056fea165627a7a7230582003d79cb98628cc89817874797e296940101c2f1f692351f6d12fce704c7d483e0029",
  "source": "pragma solidity >=0.4.22 <0.6.0;\n\nimport './token.sol';\n\ncontract Roulette is ErcToken{\n  \n  using SafeMath for uint;\n  uint public rounds; // rounds\n  uint8 public live; //only creator\n  uint necessaryBalance;\n  uint nextRoundTimestamp;\n  address payable creator;\n  uint maxAmountAllowedInTheBank;\n  mapping (address => uint) winnings;\n  uint8[] payouts;\n  uint8[] numberRange;\n  uint totalBet;\n  /*\n    BetTypes are as follow:\n      0: color\n      1: column\n      2: dozen\n      3: eighteen\n      4: modulus\n      5: number\n      \n    Depending on the BetType, number will be:\n      color: 0 for black, 1 for red\n      column: 0 for left, 1 for middle, 2 for right\n      dozen: 0 for first, 1 for second, 2 for third\n      eighteen: 0 for low, 1 for high\n      modulus: 0 for even, 1 for odd\n      number: number\n  */\n  struct User {\n      address user;\n      string name;\n      string avatar;\n      bool isUser;\n  }\n  struct Bet {\n    address player;\n    uint8 betType;\n    uint8 number;\n    uint betAmount;\n  }\n\n  \n  //mapping (address => Instructor) instructors;\n  mapping (address => uint) public winner;\n  mapping(address => User) users;\n  Bet[] public bets;\n  \n  enum State{\n      start, \n      doing,\n      end\n  }\n  \n  constructor() public payable {\n    creator = msg.sender;\n    necessaryBalance = 0;\n    rounds = 0;\n    nextRoundTimestamp = now;\n    payouts = [2,3,3,2,2,36];\n    numberRange = [1,2,2,1,1,36];\n    maxAmountAllowedInTheBank = 2000000000000000000; /* 2 ether */\n    live = 0;\n  }\n  event LogTotalBet(uint _totalBet);\n  event LogRandomNumber(uint rounds ,uint number);\n  event LogAddUser(address indexed _user, string _name, string _avatar, bool _isUser);\n  event LogWinner(address indexed _user, uint _betNum, uint _betType, uint _betAmount, uint _betWin);\n  event LogRegisterUser(address indexed _user, bool _check);\n  event LogUpdateUser(address indexed _user, string _name, string _avatar);\n  // function check user register or not yet\n    function checkRegister() \n        view  \n        public \n        returns(bool) \n    { \n        if (users[msg.sender].isUser) {\n             return true;\n        } else {\n            return false;\n        }\n    }\n    \n    // function user register\n    function registerUser() \n        public  \n    {\n        require(checkRegister() == false,\"You are register\");\n        users[msg.sender].isUser = true;\n        emit LogRegisterUser(msg.sender, true);\n    }\n    function updateUserNameAndAvatar(string memory _name, string memory _avatar) public returns(bool) {\n        User storage user =users[msg.sender];\n        user.name = _name;\n        user.avatar = _avatar;\n        emit LogUpdateUser(msg.sender, _name, _avatar);\n        return true;\n        \n    }\n    function updateUserName(string memory _name) public returns(bool) {\n        User storage user =users[msg.sender];\n        user.name = _name;\n        emit LogUpdateUser(msg.sender, _name, user.avatar);\n        return true;\n        \n    }\n    function updateUserAvatar(string memory _avatar) public returns(bool) {\n        User storage user =users[msg.sender];\n        user.avatar = _avatar;\n        emit LogUpdateUser(msg.sender,user.name, _avatar);\n        return true;\n        \n    }\n    function getUser(address _userAddress) public\n     view\n     returns(string memory _name, string memory _avatar)\n    {\n     return(\n      users[_userAddress].name,\n      users[_userAddress].avatar);\n    }\n    function changeLive() public {\n        require(msg.sender == creator);\n        live = 1;\n    }\n      function getStatus() public view returns(uint, uint, uint, uint, uint) {\n        return (\n          bets.length,             // number of active bets\n         // bets.length * betAmount, // value of active bets\n          nextRoundTimestamp,      // when can we play again\n          address(this).balance,   // roulette balance\n          winnings[msg.sender] ,    // winnings of player\n          totalBet\n        ); \n      }\n    \n  function addEther() payable public {}\n\n  function bet(uint8 number, uint8 betType, uint betAmount) payable public {\n    /* \n       A bet is valid when:\n       1 - the value of the bet is correct (=betAmount)\n       2 - betType is known (between 0 and 5)\n       3 - the option betted is valid (don't bet on 37!)\n       4 - the bank has sufficient funds to pay the bet\n    */\n    //require(msg.value == betAmount);                               // 1\n    require(betType >= 0 && betType <= 5);                         // 2\n    require(number >= 0 && number <= numberRange[betType]);        // 3\n    uint payoutForThisBet = payouts[betType] *betAmount ;\n    uint provisionalBalance = necessaryBalance + payoutForThisBet;\n    require(provisionalBalance < balanceOf[creator]);           // 4\n    require(betAmount >0);\n    require(balanceOf[msg.sender] >= betAmount);\n    require(bets.length <51);\n    require(live ==1);\n    /* we are good to go */\n    necessaryBalance += payoutForThisBet;\n    balanceOf[msg.sender] -=betAmount;\n    balanceOf[creator] +=betAmount;\n    bets.push(Bet({\n      betType: betType,\n      player: msg.sender,\n      number: number,\n      betAmount :betAmount\n    }));\n    totalBet +=betAmount;\n   \n  }\n\n  function spinWheel()  public {\n    emit LogTotalBet(totalBet);\n    require(creator == msg.sender);\n    require(live ==1);\n    /* are there any bets? */\n    require(bets.length > 0);\n    /* are we allowed to spin the wheel? */\n    require(now > nextRoundTimestamp);\n    /* next time we are allowed to spin the wheel again */\n    nextRoundTimestamp = now;\n    /* calculate 'random' number */\n    rounds +=1;\n    uint diff = block.difficulty;\n    bytes32 hash = blockhash(block.number-1);\n    Bet memory lb = bets[bets.length-1];\n    uint number = uint(keccak256(abi.encodePacked(now, diff, hash, lb.betType, lb.player, lb.number))) % 37;\n    /* check every bet for this number */\n    for (uint i = 0; i < bets.length; i++) {\n      bool won = false;\n      Bet memory b = bets[i];\n      if (number == 0) {\n        won = (b.betType == 5 && b.number == 0);                   /* bet on 0 */\n      } else {\n        if (b.betType == 5) { \n          won = (b.number == number);                              /* bet on number */\n        } else if (b.betType == 4) {\n          if (b.number == 0) won = (number % 2 == 0);              /* bet on even */\n          if (b.number == 1) won = (number % 2 == 1);              /* bet on odd */\n        } else if (b.betType == 3) {            \n          if (b.number == 0) won = (number <= 18);                 /* bet on low 18s */\n          if (b.number == 1) won = (number >= 19);                 /* bet on high 18s */\n        } else if (b.betType == 2) {                               \n          if (b.number == 0) won = (number <= 12);                 /* bet on 1st dozen */\n          if (b.number == 1) won = (number > 12 && number <= 24);  /* bet on 2nd dozen */\n          if (b.number == 2) won = (number > 24);                  /* bet on 3rd dozen */\n        } else if (b.betType == 1) {               \n          if (b.number == 0) won = (number % 3 == 1);              /* bet on left column */\n          if (b.number == 1) won = (number % 3 == 2);              /* bet on middle column */\n          if (b.number == 2) won = (number % 3 == 0);              /* bet on right column */\n        } else if (b.betType == 0) {\n          if (b.number == 0) {                                     /* bet on black */\n            if (number <= 10 || (number >= 20 && number <= 28)) {\n              won = (number % 2 == 0);\n            } else {\n              won = (number % 2 == 1);\n            }\n          } else {                                                 /* bet on red */\n            if (number <= 10 || (number >= 20 && number <= 28)) {\n              won = (number % 2 == 1);\n            } else {\n              won = (number % 2 == 0);\n            }\n          }\n        }\n      }\n      /* if winning bet, add to player winnings balance */\n      if (won) {\n        winnings[b.player] += b.betAmount * payouts[b.betType];\n        winner[b.player] = b.betAmount;\n        emit LogWinner(b.player, b.number, b.betType, b.betAmount, winnings[b.player]);\n        balanceOf[b.player] +=winnings[b.player];\n        balanceOf[creator] -=winnings[b.player];\n        winnings[b.player] = 0;\n      }\n    }\n    live = 0;\n    /* delete all bets */\n    bets.length = 0;\n    /* reset necessaryBalance */\n    necessaryBalance = 0;\n    totalBet =0;\n    /* check if to much money in the bank */\n    if (address(this).balance > maxAmountAllowedInTheBank) takeProfits();\n    /* returns 'random' number to UI */\n    emit LogRandomNumber(rounds, number);\n  }\n  \n  function cashOut() public {\n    address  player = msg.sender;\n    uint256 amount = winnings[player];\n    require(amount > 0);\n    require(amount <= balanceOf[creator]);\n    winnings[player] = 0;\n    balanceOf[player] +=amount;\n    balanceOf[creator] -=amount;\n    \n   // player.transfer(amount);\n  }\n  \n  function takeProfits() internal {\n    uint amount = address(this).balance - maxAmountAllowedInTheBank;\n    if (amount > 0) creator.transfer(amount);\n  }\n  \n  function creatorKill() public {\n    require(msg.sender == creator);\n    selfdestruct(creator);\n  }\n}\n",
  "sourcePath": "/home/kai/blockchain/truffle/contracts/roulette.sol",
  "compiler": {
    "name": "solc",
    "version": "0.5.1+commit.c8a2cb62.Emscripten.clang"
  },
  "schemaVersion": "3.0.16",
  "updatedAt": "2019-10-02T01:48:03.382Z",
  "devdoc": {
    "methods": {
      "approve(address,uint256)": {
        "params": {
          "_spender": "The address authorized to spend",
          "_value": "the max amount they can spend"
        }
      },
      "burn(uint256)": {
        "params": {
          "_value": "the amount of money to burn"
        }
      },
      "burnFrom(address,uint256)": {
        "params": {
          "_from": "the address of the sender",
          "_value": "the amount of money to burn"
        }
      },
      "transfer(address,uint256)": {
        "params": {
          "_to": "The address of the recipient",
          "_value": "the amount to send"
        }
      },
      "transferFrom(address,address,uint256)": {
        "params": {
          "_from": "The address of the sender",
          "_to": "The address of the recipient",
          "_value": "the amount to send"
        }
      }
    }
  },
  "userdoc": {
    "methods": {
      "approve(address,uint256)": {
        "notice": "Set allowance for other address     * Allows `_spender` to spend no more than `_value` tokens on your behalf"
      },
      "burn(uint256)": {
        "notice": "Destroy tokens     * Remove `_value` tokens from the system irreversibly"
      },
      "burnFrom(address,uint256)": {
        "notice": "Destroy tokens from other account     * Remove `_value` tokens from the system irreversibly on behalf of `_from`."
      },
      "transfer(address,uint256)": {
        "notice": "Transfer tokens     * Send `_value` tokens to `_to` from your account"
      },
      "transferFrom(address,address,uint256)": {
        "notice": "Transfer tokens from other address     * Send `_value` tokens to `_to` on behalf of `_from`"
      }
    }
  }
}